:100000000C9434000C943E000C943E000C943E0082
:100010000C943E000C943E000C943E000C943E0068
:100020000C943E000C943E000C943E000C943E0058
:100030000C943E000C943E000C943E000C943E0048
:100040000C943E000C943E000C943E000C943E0038
:100050000C943E000C943E000C943E000C943E0028
:100060000C943E000C943E0011241FBECFEFD8E04C
:10007000DEBFCDBF0E943C010C943D010C940000FA
:10008000CF93C82F0E94330185E00E9437018FE093
:100090000E94370180EE0E9437018C2F8295880FD5
:1000A000807E0E943701CF910C9435010E9433016C
:1000B00085E00E9437018FE00E94370184E00E94B2
:1000C000370184E00E9437010C9435010E9433010E
:1000D00085E00E9437018FE00E94370184E00E9492
:1000E000370180E00E9437010C943501CF93DF93F4
:1000F000D82FC62F0E94330182E00E9437018D2F36
:100100000E9437018C2F0E943701DF91CF910C9410
:100110003501CF93C82F0E94330183E00E9437013D
:100120008C2F0E94370180E00E9437010E94350128
:100130008EB5CF910895EF92FF920F931F93CF93B7
:10014000DF93C82F7B010E9433018C2F80640E94B3
:100150003701F701808191819695879596958795CE
:10016000969587950E943701F70180818295880FC7
:10017000807E0E94370180E00E94370180E00E946B
:100180003701F7018281182F16951F7080FD1CC062
:10019000812F0E943701112379F0E7012396115036
:1001A000012F10E00C5F1F4F0E0D1F1D89910E9443
:1001B0003701C017D107D1F7DF91CF911F910F9170
:1001C000FF90EF900C943501812F80640E943701DD
:1001D000DF91CF911F910F91FF90EF900C9435011B
:1001E000CF93882351F0C82FC0680E9433018C2F11
:1001F0000E943701CF910C943501C1E80E94330170
:100200008C2F0E943701CF910C943501CF93C82FCA
:100210000E94330185E00E9437018C2F0E94370134
:1002200088E00E94370180E00E943701CF910C9452
:100230003501CF93C62F0E94890091E08C1390E086
:10024000892FCF91089584B18C6384B98CB5816571
:100250008CBD2A9A08952A988EBD0DB407FEFDCF55
:100260002A9A8EB508952A9808952A9A08958EBDDF
:0E0270000DB407FEFDCF0895FFCFF894FFCF29
:00000001FF
